:020000040800F2
:1000000000800120F10A00089D0500089F050008F6
:10001000A1050008A3050008A505000800000000D0
:10002000000000000000000000000000A70500081C
:10003000A905000800000000AB050008AD05000898
:10004000410B0008410B0008410B0008410B000860
:10005000410B0008410B0008410B0008410B000850
:10006000410B0008410B0008410B0008410B000840
:10007000410B0008410B0008410B0008410B000830
:10008000410B0008410B0008410B00080000000074
:10009000000000000000000000000000410B00080C
:1000A000410B0008410B0008410B0008410B000800
:1000B000410B0008410B0008410B0008410B0008F0
:1000C000410B0008410B0008410B0008410B0008E0
:1000D000410B0008410B0008410B00080000000024
:1000E000410B0008410B0008410B00080000000014
:1000F000000000000000000000000000410B0008AC
:1001000000000000410B0008410B0008410B0008F3
:1001100000000000000000000000000000000000DF
:10012000410B0008410B0008410B0008410B00087F
:10013000410B00080000000000000000000000006B
:10014000000000000000000000000000410B00085B
:10015000410B0008410B0008410B0008410B00084F
:10016000410B0008410B00080000000000000000E7
:10017000000000000000000000000000000000007F
:1001800000000000410B000800000000000000001B
:04019000410B000817
:1001940053B94AB9002908BF00281CBF4FF0FF31EA
:1001A4004FF0FF3000F00CB8ADF1080C6DE904CE4F
:1001B40000F0EAFCDDF804E0DDE9022304B0704756
:1001C400704700BF10B5054C237833B9044B13B105
:1001D4000448AFF300800123237010BD0800002001
:1001E40000000000480E000808B5034B1BB103498A
:1001F4000348AFF3008008BD000000000C0000209D
:10020400480E000810B4C46891FAA1F3A3B1B3FA7C
:1002140083F35B004FF0030C0CFA03F324EA0303AB
:1002240091FAA1F151B1B1FA81F149008A40134325
:10023400C3605DF8044B70472023EAE72021F4E70C
:1002440010B4046891FAA1F3A3B1B3FA83F35B0089
:100254004FF0030C0CFA03F324EA030391FAA1F11F
:1002640051B1B1FA81F149008A40134303605DF84A
:10027400044B70472023EAE72021F4E770B58CB0E3
:1002840000230A930B93049305930693079308930F
:100294000993304B1A6B42F004021A631A6B02F092
:1002A40004020392039A1A6B42F080021A631A6BD7
:1002B40002F080020292029A1A6B42F001021A635F
:1002C4001A6B02F001020192019A1A6B42F00202C7
:1002D4001A631B6B03F002030093009B1E4B4FF049
:1002E40084629A61A3F548435A6922F0F002F0232C
:1002F40093FAA3F35BB3B3FA83F3022101FA03F392
:100304001343164A53614FF400540A9401258DF89F
:100314002C508DF82E100AA800F058F9104E002227
:1003240021463046FFF76EFF002221463046FFF794
:1003340087FF4FF484630493059500230693079382
:10034400089304A9044800F044FA0CB070BD2023BB
:10035400D3E700BF003802400000024000380140EB
:100364000008024070B590B009AD002409940A94C5
:100374000B940C940D940E940F9403A903944C6065
:100384008C60CC600C614C611B4B1A6C42F40032E3
:100394001A641A6C02F400320292029A1A6B42F046
:1003A40001021A631B6B03F001030193019B0C26EA
:1003B40003960223049307230893104800F009FAD4
:1003C4004FF4E13309930A940B940C940D960E9414
:1003D4000F940B4C2946204600F01CFB236923F4A0
:1003E40090432361636923F02A036361E36843F460
:1003F4000053E36010B070BD0038024000000240BA
:100404000044004010B5364A136823F0070343F054
:1004140002031360324B1B6803F00703022BF9D16C
:10042400304A136823F4404343F40043136002F555
:10043400E432136823F0F80343F080031360136875
:1004440043F001031360284B1B6813F0020FFAD02A
:10045400254A5168254B0B4043F4A84343F010034D
:100464005360536823F4403343F480335360136878
:1004740043F0807313601C4B1B6813F0007FFAD0A9
:10048400184B5B6813F4804FFAD0174B9A6822F02C
:10049400F0029A609A6822F4E05242F480529A6020
:1004A4009A6822F460429A609A6822F0030242F049
:1004B40002029A600C4B9B6803F00C03082BF9D1E1
:1004C4000B4C204600F0F2FA204600F0FFFA064AF0
:1004D400D2F88C3023F08073C2F88C3010BD00BF8A
:1004E400003C024000700040003802400080BFFF22
:1004F40000BD010500B583B0214B5A6C42F4804223
:100504005A645A6C02F480420192019A1A6C42F0C5
:1005140080521A641B6C03F080530093009B1949AA
:10052400CA6822F4E0621204120C174B1343CB6026
:10053400FFF768FFFFF7A2FEFFF714FF134B1B68DA
:10054400134AA2FB03239B09013BB3F1807F15D21D
:100554004FF0E02253610B4BF02183F8231000236A
:1005640093610723136109E0013341F29902934235
:10057400FADD084A536983F4806353610023F4E786
:100584000038024000ED00E00003FA0504000020FA
:10059400D34D621000000240FEE7FEE7FEE7FEE7EF
:1005A400FEE7704770477047002300E00133064AB6
:1005B40012689A42FADC130103F0300343EAA203FF
:1005C400014A1360704700BF0000002010B40346C6
:1005D4000079002852D01A68002A5DD05879012881
:1005E40020D0022829D0002831D12D494C6824EA92
:1005F40002024A601A680C6822430A609A79002A47
:1006040047D0022A25D0032A2ED0012A46D11C68BD
:10061400234AD16821EA0401D1601B6891680B4325
:10062400936036E01E49086820EA02020A601A68EC
:10063400486802434A600020E0E719490868024319
:100644000A601A68486802434A600020D6E701201D
:10065400D4E71C68124A916821EA040191601B687E
:10066400D1680B43D36014E019680D4A94682143A0
:1006740091601B68D1680B43D3600AE0084A116893
:100684001C6821EA040111601968536823EA010314
:1006940053605DF8044B70470020FAE70120F8E747
:1006A400003C014010B4846891FAA1F3A3B1B3FAF9
:1006B40083F35B004FF0030C0CFA03F324EA030307
:1006C40091FAA1F151B1B1FA81F149008A40134381
:1006D40083605DF8044B70472023EAE72021F4E7A8
:1006E40010B4C46891FAA1F3A3B1B3FA83F35B0025
:1006F4004FF0030C0CFA03F324EA030391FAA1F17B
:1007040051B1B1FA81F149008A401343C3605DF8E5
:10071400044B70472023EAE72021F4E710B4046A6D
:1007240091FAA1F3A3B1B3FA83F39B004FF00F0C3A
:100734000CFA03F324EA030391FAA1F151B1B1FADB
:1007440081F189008A40134303625DF8044B7047CA
:100754002023EAE72021F4E710B4446A090A91FA55
:10076400A1F3A3B1B3FA83F39B004FF00F0C0CFA7F
:1007740003F324EA030491FAA1F151B1B1FA81F12E
:1007840089008A40144344625DF8044B7047202377
:10079400EAE72021F4E710B4046891FAA1F3A3B1C5
:1007A400B3FA83F35B004FF0030C0CFA03F324EA6F
:1007B400030391FAA1F151B1B1FA81F149008A40E0
:1007C400134303605DF8044B70472023EAE72021BC
:1007D400F4E7F8B507460E460D6895FAA5F515B188
:1007E400B5FA85F51AE0202518E0B26821463846A6
:1007F400FFF758FFF2687B6823EA040304FB02F264
:1008040013437B6016E0726921463846FFF7A4FF64
:10081400726821463846FFF7BEFF0135346834FA62
:1008240005F21DD00122AA401440F6D07368013BA2
:10083400012BDAD9326921463846FFF751FF736834
:10084400022BE5D194FAA4F3002BDCD0B3FA83F3A2
:10085400072BD8D8726921463846FFF75FFFD7E7E0
:100864000020F8BD034B9B68C3F30313024AD35C17
:10087400D840704700380240680E0008034B9B685C
:10088400C3F38223024AD35CD84070470038024045
:10089400600E0008034B9B68C3F34233024AD35CE7
:1008A400D840704700380240600E00080F4B5B6868
:1008B40003F4800323B90E4B082803D000207047AB
:1008C4000C4BF9E7094A516801F03F01B3FBF1F021
:1008D4005368C3F3881303FB00F05368C3F3014365
:1008E40001335B00B0FBF3F0704700BF00380240F7
:1008F4000024F40000127A0008B5084B9B6803F04A
:100904000C03042B05D0082B05D10820FFF7CEFFDC
:1009140008BD0348FCE70348FAE700BF003802407B
:1009240000127A000024F40010B50446FFF7E4FF37
:100934002060FFF797FF6060FFF7A0FFA06060688A
:10094400FFF7A8FFE06010BD10B50446B2F5004FF4
:100954002FD04FF0000C48184CEB0C0C40184CF105
:10096400000C4FEACC0C4CEA507CC00040184FEA13
:1009740083024FEA93734CF10001FFF709FC244909
:10098400A1FB00235B091A0192B24FF0640C0CFB2B
:1009940013031B013233A1FB0313C3F34F1303F0FF
:1009A400F0010A4492B203F00F0313449BB2A36014
:1009B40010BD4FF0000C48184CEB0C02401842F1EB
:1009C4000002D20042EA5072C000401842F1000115
:1009D400DA184CEB0C03FFF7DBFB0D49A1FB0023FA
:1009E4005B091A0192B24FF0640C0CFB1303DB0099
:1009F4003233A1FB0313C3F34F13590001F4F8710D
:100A04000A4492B203F0070313449BB2A360CFE7F6
:100A14001F85EB51C36813F4005F01D001207047B8
:100A240030B585B004460D46C36823F4164323F05D
:100A34000C034A68C9680A4329690A43A9690A4335
:100A44001343C360AB68026922F440521343036149
:100A54006B69426922F44072134343616846FFF7AD
:100A640063FF0F4B9C4208D00E4B9C420BD00E4BA5
:100A74009C420AD0012005B030BD039969B12B68AE
:100A84002BB90120F7E70299F8E70399F6E7AA6979
:100A94002046FFF759FF0020EDE70120EBE700BFF8
:100AA400001001400044004000140140064BA3FB29
:100AB40000239B09013B4FF0E02253610023936123
:100AC40005231361704700BFD34D6210014B1860BA
:100AD400704700BF04000020034AD2F8883043F472
:100AE4007003C2F88830704700ED00E0DFF834D0BE
:100AF400FFF7F2FF0C480D490D4A002302E0D458D9
:100B0400C4500433C4188C42F9D30A4A0A4C002353
:100B140001E013600432A242FBD300F011F8FFF7A6
:100B2400E9FC70470080012000000020080000203C
:100B3400880E00080800002024000020FEE70000C2
:100B440070B50D4B0D4D5B1B9C100026A64209D1C0
:100B540000F078F90A4D0B4B5B1B9C100026A64253
:100B640005D170BD55F8043B98470136EEE755F8BA
:100B7400043B98470136F2E7800E0008800E000817
:100B8400800E0008840E00082DE9F0478C468E463E
:100B9400089E154604461946002B40F0D080724545
:100BA40047D9B2FA82F74FB1C7F120030EFA07FC16
:100BB40020FA03F3BD4043EA0C0CBC404FEA154E47
:100BC400A8B2BCFBFEF8230C0EFB18CC08FB00F902
:100BD40043EA0C43994528D9EB1808F1FF3204D2B3
:100BE400994502D9A8F102022B44A3EB0903A4B24C
:100BF400B3FBFEFC0EFB1C330CFB00F044EA034485
:100C0400A04214D92C190CF1FF3304D2A04202D90A
:100C1400ACF102032C44241A43EA02401EB1FC4006
:100C2400002334607360BDE8F0874246DDE7634625
:100C3400F1E7002A79D0B2FA82F3002B3FD01946AB
:100C4400C1F1200302FA01F52EFA03F20EFA01FEB5
:100C540020FA03F343EA0E034FEA154E00FA01F4B7
:100C6400B2FBFEFCAFB20EFB1C201A0C0CFB07F807
:100C740042EA004290455AD9AA180CF1FF3004D236
:100C8400904502D9ACF102002A44A2EB08029BB2BF
:100C9400B2FBFEFC0EFB1C220CFB07F743EA0243EB
:100CA4009F4246D9EB180CF1FF3204D29F4202D97D
:100CB400ACF102022B44DB1B42EA004202E0AEEB41
:100CC400020301224FEA154EAFB2B3FBFEFC200C27
:100CD4000EFB1C330CFB07F840EA034398452AD962
:100CE400EB180CF1FF3004D2984502D9ACF10200A4
:100CF4002B44A3EB0803A4B2B3FBFEFC0EFB1C3392
:100D04000CFB07F744EA0344A74216D92C190CF14B
:100D1400FF3304D2A74202D9ACF102032C44E41BF2
:100D240043EA00400F46114678E71F2188E76046F2
:100D3400ABE76246BFE76046DBE76346EFE7734530
:100D440006D916B9002108466DE7C6E9000EF9E791
:100D5400B3FA83F787B9734501D3824207D8841A5B
:100D64006EEB030301209C461EB900215BE7384665
:100D7400FAE7C6E9004CF8E7C7F1200CBB4022FAB9
:100D84000CF51D4320FA0CF12EFA0CF30EFA07FEB3
:100D940041EA0E014FEA154900FA07F4B3FBF9F8EA
:100DA4001FFA85FE09FB18300B0C08FB0EFA43EA08
:100DB40000439A4502FA07F240D9EB1808F1FF30D4
:100DC40004D29A4502D9A8F102002B44A3EB0A03EA
:100DD40089B2B3FBF9F809FB183308FB0EFE41EAAC
:100DE40003418E452CD9691808F1FF3304D28E458E
:100DF40002D9A8F10203294443EA0040A0FB029867
:100E0400A1EB0E014145CE46434602D306D14C45E3
:100E140004D2B9EB020E68EB05030138002EA4D00E
:100E2400B4EB0E0261EB030101FA0CFC22FA07F3A6
:100E34004CEA0303F940C6E9003196E74046C5E7AA
:100E44004346D9E7F8B500BFF8BC08BC9E467047D6
:0C0E5400F8B500BFF8BC08BC9E46704713
:100E60000000000001020304000000000000000078
:080E7000010203040607080952
:080E780014FDFF7F01000000E2
:040E8000ED01000878
:040E8400C901000898
:080E88002C0100000024F4001D
:0400000508000AF1F4
:00000001FF
